{
    "contractName": "SimpleWallet",
    "abi": [
        {
            "inputs": [],
            "stateMutability": "nonpayable",
            "type": "constructor"
        },
        {
            "inputs": [],
            "name": "owner",
            "outputs": [
                {
                    "internalType": "address",
                    "name": "",
                    "type": "address"
                }
            ],
            "stateMutability": "view",
            "type": "function"
        },
        {
            "inputs": [
                {
                    "internalType": "address payable",
                    "name": "_to",
                    "type": "address"
                },
                {
                    "internalType": "uint256",
                    "name": "_amount",
                    "type": "uint256"
                }
            ],
            "name": "withdrawMoney",
            "outputs": [],
            "stateMutability": "nonpayable",
            "type": "function"
        },
        {
            "stateMutability": "payable",
            "type": "receive"
        }
    ],
    "bytecode": "608060405234801561001057600080fd5b50600080546001600160a01b03191633179055610132806100326000396000f3fe608060405260043610602a5760003560e01c80638da5cb5b146035578063f274c89714606f57600080fd5b36603057005b600080fd5b348015604057600080fd5b506000546053906001600160a01b031681565b6040516001600160a01b03909116815260200160405180910390f35b348015607a57600080fd5b50608a608636600460c6565b608c565b005b6040516001600160a01b0383169082156108fc029083906000818181858888f1935050505015801560c1573d6000803e3d6000fd5b505050565b6000806040838503121560d857600080fd5b82356001600160a01b038116811460ee57600080fd5b94602093909301359350505056fea2646970667358221220c156ac00f43a56885edc5597b96e7e5fc83545e46ad4abc0090a6f4c546a418964736f6c63430008060033",
    "sourcePath": "d:/backupdata/WORK-BACKUP/WORK/NgadiNgadi/belajar-sc3/contracts/SimpleWallet.sol",
    "compiler": {
        "name": "solc",
        "version": "0.8.6+commit.11564f7e"
    },
    "functionHashes": {
        "owner()": "8da5cb5b",
        "withdrawMoney(address,uint256)": "f274c897"
    },
    "gasEstimates": {
        "creation": {
            "codeDepositCost": "61200",
            "executionCost": "24346",
            "totalCost": "85546"
        },
        "external": {
            "owner()": "2303",
            "withdrawMoney(address,uint256)": "infinite"
        }
    }
}